:020000020000FC
:02000000FFC03F
:02000400FDC13C
:02000C00F9C237
:02001C00F1C32E
:1002000008E00EBF0FE50DBF00E005BF00E404BF2E
:100210000FEF04BB8A9ABA9A929A00E60BBF7894C1
:040220000C94100129
:0E040000220F3395239510E00E9400051895F9
:0C060000220F339510E00E9400051895B1
:10080000139500B376B3072302FD0C941004113046
:1008100019F40E94000604C0123011F420E030E008
:02082000189529
:100A000000E109BF00E00FBD0DE00EBD00E00DBD2F
:0E0A100000E00CBD0FE00BBD02E40ABD08952E
:100C0000313029F4203019F402E005BB17C032302E
:100C100051F4213019F401E005BB10C0203019F463
:100C200004E005BB0BC0333049F4273019F408E069
:0E0C300005BB04C0213011F400E105BB08959E
:00000001FF
